{
  "_format": "hh-sol-artifact-1",
  "contractName": "StakingContest",
  "sourceName": "contracts/StakingContest.sol",
  "abi": [
    {
      "inputs": [
        {
          "internalType": "uint256",
          "name": "_limit",
          "type": "uint256"
        },
        {
          "internalType": "uint256",
          "name": "_open",
          "type": "uint256"
        },
        {
          "internalType": "uint256",
          "name": "_close",
          "type": "uint256"
        },
        {
          "internalType": "address",
          "name": "_acceptedToken",
          "type": "address"
        },
        {
          "internalType": "address",
          "name": "_nft",
          "type": "address"
        },
        {
          "internalType": "address",
          "name": "pool",
          "type": "address"
        },
        {
          "internalType": "uint256",
          "name": "_poolId",
          "type": "uint256"
        }
      ],
      "stateMutability": "nonpayable",
      "type": "constructor"
    },
    {
      "anonymous": false,
      "inputs": [
        {
          "indexed": true,
          "internalType": "address",
          "name": "user",
          "type": "address"
        },
        {
          "indexed": false,
          "internalType": "uint256",
          "name": "rank",
          "type": "uint256"
        }
      ],
      "name": "ChangeTop",
      "type": "event"
    },
    {
      "anonymous": false,
      "inputs": [
        {
          "indexed": true,
          "internalType": "address",
          "name": "user",
          "type": "address"
        },
        {
          "indexed": false,
          "internalType": "uint256",
          "name": "amount",
          "type": "uint256"
        }
      ],
      "name": "Claim",
      "type": "event"
    },
    {
      "anonymous": false,
      "inputs": [
        {
          "indexed": true,
          "internalType": "address",
          "name": "user",
          "type": "address"
        },
        {
          "indexed": false,
          "internalType": "uint256",
          "name": "id",
          "type": "uint256"
        }
      ],
      "name": "MintNFT",
      "type": "event"
    },
    {
      "anonymous": false,
      "inputs": [
        {
          "indexed": true,
          "internalType": "address",
          "name": "previousOwner",
          "type": "address"
        },
        {
          "indexed": true,
          "internalType": "address",
          "name": "newOwner",
          "type": "address"
        }
      ],
      "name": "OwnershipTransferred",
      "type": "event"
    },
    {
      "anonymous": false,
      "inputs": [
        {
          "indexed": false,
          "internalType": "address",
          "name": "account",
          "type": "address"
        }
      ],
      "name": "Paused",
      "type": "event"
    },
    {
      "anonymous": false,
      "inputs": [
        {
          "indexed": false,
          "internalType": "address",
          "name": "account",
          "type": "address"
        }
      ],
      "name": "Unpaused",
      "type": "event"
    },
    {
      "stateMutability": "payable",
      "type": "fallback"
    },
    {
      "inputs": [],
      "name": "acceptedToken",
      "outputs": [
        {
          "internalType": "contract IERC20",
          "name": "",
          "type": "address"
        }
      ],
      "stateMutability": "view",
      "type": "function"
    },
    {
      "inputs": [],
      "name": "claim",
      "outputs": [],
      "stateMutability": "nonpayable",
      "type": "function"
    },
    {
      "inputs": [],
      "name": "close",
      "outputs": [
        {
          "internalType": "uint256",
          "name": "",
          "type": "uint256"
        }
      ],
      "stateMutability": "view",
      "type": "function"
    },
    {
      "inputs": [],
      "name": "getTops",
      "outputs": [
        {
          "internalType": "address[]",
          "name": "",
          "type": "address[]"
        },
        {
          "internalType": "uint128[]",
          "name": "",
          "type": "uint128[]"
        },
        {
          "internalType": "uint256[]",
          "name": "",
          "type": "uint256[]"
        }
      ],
      "stateMutability": "view",
      "type": "function"
    },
    {
      "inputs": [
        {
          "internalType": "address",
          "name": "user",
          "type": "address"
        }
      ],
      "name": "getUserStake",
      "outputs": [
        {
          "internalType": "uint128",
          "name": "",
          "type": "uint128"
        },
        {
          "internalType": "uint256",
          "name": "",
          "type": "uint256"
        }
      ],
      "stateMutability": "view",
      "type": "function"
    },
    {
      "inputs": [],
      "name": "limit",
      "outputs": [
        {
          "internalType": "uint256",
          "name": "",
          "type": "uint256"
        }
      ],
      "stateMutability": "view",
      "type": "function"
    },
    {
      "inputs": [],
      "name": "nft",
      "outputs": [
        {
          "internalType": "contract IMinterNFT",
          "name": "",
          "type": "address"
        }
      ],
      "stateMutability": "view",
      "type": "function"
    },
    {
      "inputs": [],
      "name": "open",
      "outputs": [
        {
          "internalType": "uint256",
          "name": "",
          "type": "uint256"
        }
      ],
      "stateMutability": "view",
      "type": "function"
    },
    {
      "inputs": [],
      "name": "owner",
      "outputs": [
        {
          "internalType": "address",
          "name": "",
          "type": "address"
        }
      ],
      "stateMutability": "view",
      "type": "function"
    },
    {
      "inputs": [],
      "name": "pause",
      "outputs": [],
      "stateMutability": "nonpayable",
      "type": "function"
    },
    {
      "inputs": [],
      "name": "paused",
      "outputs": [
        {
          "internalType": "bool",
          "name": "",
          "type": "bool"
        }
      ],
      "stateMutability": "view",
      "type": "function"
    },
    {
      "inputs": [],
      "name": "poolId",
      "outputs": [
        {
          "internalType": "uint256",
          "name": "",
          "type": "uint256"
        }
      ],
      "stateMutability": "view",
      "type": "function"
    },
    {
      "inputs": [],
      "name": "renounceOwnership",
      "outputs": [],
      "stateMutability": "nonpayable",
      "type": "function"
    },
    {
      "inputs": [
        {
          "internalType": "uint256",
          "name": "_close",
          "type": "uint256"
        }
      ],
      "name": "setCloseTime",
      "outputs": [],
      "stateMutability": "nonpayable",
      "type": "function"
    },
    {
      "inputs": [
        {
          "internalType": "uint256",
          "name": "_limit",
          "type": "uint256"
        }
      ],
      "name": "setLimit",
      "outputs": [],
      "stateMutability": "nonpayable",
      "type": "function"
    },
    {
      "inputs": [
        {
          "internalType": "address",
          "name": "_nft",
          "type": "address"
        }
      ],
      "name": "setNftMinter",
      "outputs": [],
      "stateMutability": "nonpayable",
      "type": "function"
    },
    {
      "inputs": [
        {
          "internalType": "uint256",
          "name": "_open",
          "type": "uint256"
        }
      ],
      "name": "setOpenTime",
      "outputs": [],
      "stateMutability": "nonpayable",
      "type": "function"
    },
    {
      "inputs": [
        {
          "internalType": "uint256",
          "name": "_id",
          "type": "uint256"
        }
      ],
      "name": "setPoolId",
      "outputs": [],
      "stateMutability": "nonpayable",
      "type": "function"
    },
    {
      "inputs": [
        {
          "internalType": "address",
          "name": "pool",
          "type": "address"
        }
      ],
      "name": "setStakingPool",
      "outputs": [],
      "stateMutability": "nonpayable",
      "type": "function"
    },
    {
      "inputs": [
        {
          "internalType": "uint128",
          "name": "amount",
          "type": "uint128"
        }
      ],
      "name": "stake",
      "outputs": [],
      "stateMutability": "nonpayable",
      "type": "function"
    },
    {
      "inputs": [],
      "name": "stakingPool",
      "outputs": [
        {
          "internalType": "contract IStakingPool",
          "name": "",
          "type": "address"
        }
      ],
      "stateMutability": "view",
      "type": "function"
    },
    {
      "inputs": [
        {
          "internalType": "address",
          "name": "newOwner",
          "type": "address"
        }
      ],
      "name": "transferOwnership",
      "outputs": [],
      "stateMutability": "nonpayable",
      "type": "function"
    },
    {
      "inputs": [],
      "name": "unpause",
      "outputs": [],
      "stateMutability": "nonpayable",
      "type": "function"
    },
    {
      "inputs": [
        {
          "internalType": "address",
          "name": "to",
          "type": "address"
        },
        {
          "internalType": "uint256",
          "name": "amount",
          "type": "uint256"
        }
      ],
      "name": "withdraw",
      "outputs": [],
      "stateMutability": "nonpayable",
      "type": "function"
    },
    {
      "stateMutability": "payable",
      "type": "receive"
    }
  ],
  "bytecode": "0x60806040526000196005553480156200001757600080fd5b5060405162001bbd38038062001bbd8339810160408190526200003a91620001d4565b6200004e620000486200013a565b6200013e565b6000805460ff60a01b191690556001879055600286905560038590556004818155600680546001600160a01b038086166001600160a01b0319928316179092556007805488841690831617908190556008805488851693169290921790915560055460405163095ea7b360e01b8152919092169263095ea7b392620000d69287920162000244565b602060405180830381600087803b158015620000f157600080fd5b505af115801562000106573d6000803e3d6000fd5b505050506040513d601f19601f820116820180604052508101906200012c9190620001ab565b50505050505050506200025d565b3390565b600080546001600160a01b038381166001600160a01b0319831681178455604051919092169283917f8be0079c531659141344cd1fd0a4f28419497f9722a3daafe3b4186f6b6457e09190a35050565b80516001600160a01b0381168114620001a657600080fd5b919050565b600060208284031215620001bd578081fd5b81518015158114620001cd578182fd5b9392505050565b600080600080600080600060e0888a031215620001ef578283fd5b8751965060208801519550604088015194506200020f606089016200018e565b93506200021f608089016200018e565b92506200022f60a089016200018e565b915060c0880151905092959891949750929550565b6001600160a01b03929092168252602082015260400190565b611950806200026d6000396000f3fe60806040526004361061014f5760003560e01c8063715018a6116100b6578063b79a2b091161006f578063b79a2b0914610348578063bbadc93a14610368578063f2fde38b14610396578063f3fef3a3146103b6578063f60ba338146103d6578063fcfff16f146103f657610156565b8063715018a6146102b45780638456cb59146102c957806388fe2be8146102de5780638da5cb5b146102fe578063a4d66daf14610313578063ac78012c1461032857610156565b80633f4ba83a116101085780633f4ba83a1461022957806343d726d61461023e578063451c3d801461025357806347ccca02146102685780634e71d92d1461027d5780635c975abb1461029257610156565b80630c56ae3b146101585780631bbb61a91461018357806327ea6f2b146101a75780633028f63a146101c75780633be3a3f5146101e75780633e0dc34e1461020757610156565b3661015657005b005b34801561016457600080fd5b5061016d61040b565b60405161017a9190611476565b60405180910390f35b34801561018f57600080fd5b5061019861041a565b60405161017a939291906114c7565b3480156101b357600080fd5b506101566101c2366004611408565b61065b565b3480156101d357600080fd5b506101566101e236600461137e565b6106a8565b3480156101f357600080fd5b50610156610202366004611408565b6107af565b34801561021357600080fd5b5061021c6107f3565b60405161017a9190611861565b34801561023557600080fd5b506101566107f9565b34801561024a57600080fd5b5061021c610842565b34801561025f57600080fd5b5061016d610848565b34801561027457600080fd5b5061016d610857565b34801561028957600080fd5b50610156610866565b34801561029e57600080fd5b506102a7610abc565b60405161017a9190611566565b3480156102c057600080fd5b50610156610acc565b3480156102d557600080fd5b50610156610b15565b3480156102ea57600080fd5b506101566102f93660046113e1565b610b5c565b34801561030a57600080fd5b5061016d610db3565b34801561031f57600080fd5b5061021c610dc2565b34801561033457600080fd5b50610156610343366004611408565b610dc8565b34801561035457600080fd5b5061015661036336600461137e565b610e0c565b34801561037457600080fd5b5061038861038336600461137e565b610e93565b60405161017a929190611848565b3480156103a257600080fd5b506101566103b136600461137e565b610ec3565b3480156103c257600080fd5b506101566103d1366004611398565b610f31565b3480156103e257600080fd5b506101566103f1366004611408565b610fa0565b34801561040257600080fd5b5061021c610fe4565b6006546001600160a01b031681565b6060806060600060015467ffffffffffffffff81111561044a57634e487b7160e01b600052604160045260246000fd5b604051908082528060200260200182016040528015610473578160200160208202803683370190505b509050600060015467ffffffffffffffff8111156104a157634e487b7160e01b600052604160045260246000fd5b6040519080825280602002602001820160405280156104ca578160200160208202803683370190505b509050600060015467ffffffffffffffff8111156104f857634e487b7160e01b600052604160045260246000fd5b604051908082528060200260200182016040528015610521578160200160208202803683370190505b50905060005b60015481101561064e5760008181526009602052604090205484516001600160a01b039091169085908390811061056e57634e487b7160e01b600052603260045260246000fd5b6001600160a01b039283166020918202929092018101919091526000838152600982526040808220549093168152600a909152206001015483516001600160801b03909116908490839081106105d457634e487b7160e01b600052603260045260246000fd5b6001600160801b039092166020928302919091018201526000828152600982526040808220546001600160a01b03168252600a9092522060020154825183908390811061063157634e487b7160e01b600052603260045260246000fd5b602090810291909101015280610646816118e9565b915050610527565b5091945092509050909192565b610663610fea565b6001600160a01b0316610674610db3565b6001600160a01b0316146106a35760405162461bcd60e51b815260040161069a906116f7565b60405180910390fd5b600155565b6106b0610fea565b6001600160a01b03166106c1610db3565b6001600160a01b0316146106e75760405162461bcd60e51b815260040161069a906116f7565b6001600160a01b03811661070d5760405162461bcd60e51b815260040161069a9061169f565b600680546001600160a01b0319166001600160a01b038381169190911790915560075460055460405163095ea7b360e01b8152919092169163095ea7b3916107599185916004016114ae565b602060405180830381600087803b15801561077357600080fd5b505af1158015610787573d6000803e3d6000fd5b505050506040513d601f19601f820116820180604052508101906107ab91906113c1565b5050565b6107b7610fea565b6001600160a01b03166107c8610db3565b6001600160a01b0316146107ee5760405162461bcd60e51b815260040161069a906116f7565b600355565b60045481565b610801610fea565b6001600160a01b0316610812610db3565b6001600160a01b0316146108385760405162461bcd60e51b815260040161069a906116f7565b610840610fee565b565b60035481565b6007546001600160a01b031681565b6008546001600160a01b031681565b61086e610abc565b1561088b5760405162461bcd60e51b815260040161069a90611675565b336000908152600a60205260409020600381015460ff16156108bf5760405162461bcd60e51b815260040161069a906117d7565b60018101546001600160801b03166108e95760405162461bcd60e51b815260040161069a906116cf565b80546001600160a01b031633146109125760405162461bcd60e51b815260040161069a906117ad565b60005b600154811015610a495781546000828152600960205260409020546001600160a01b0390811691161415610a375760038201805460ff191660019081179091556006546004805492850154855460405163953c40df60e01b81526001600160a01b039485169563953c40df956109999591946001600160801b03169316910161186a565b600060405180830381600087803b1580156109b357600080fd5b505af11580156109c7573d6000803e3d6000fd5b50506008546040516394bf804d60e01b81526001600160a01b0390911692506394bf804d91506109fe906001903390600401611571565b600060405180830381600087803b158015610a1857600080fd5b505af1158015610a2c573d6000803e3d6000fd5b505050505050610840565b80610a41816118e9565b915050610915565b506001810154610a62906001600160801b03163361105f565b60038101805460ff1916600190811790915581015460405133917f47cee97cb7acd717b3c0aa1435d004cd5b3c8c57d70dbceb4e4458bbd60e39d491610ab1916001600160801b031690611834565b60405180910390a250565b600054600160a01b900460ff1690565b610ad4610fea565b6001600160a01b0316610ae5610db3565b6001600160a01b031614610b0b5760405162461bcd60e51b815260040161069a906116f7565b6108406000611076565b610b1d610fea565b6001600160a01b0316610b2e610db3565b6001600160a01b031614610b545760405162461bcd60e51b815260040161069a906116f7565b6108406110c6565b610b64610abc565b15610b815760405162461bcd60e51b815260040161069a90611675565b4260025411158015610b9557506003544211155b610bb15760405162461bcd60e51b815260040161069a9061180e565b610bc3816001600160801b0316611127565b336000818152600a6020526040812080546001600160a01b0319169092178255600182018054849290610c009084906001600160801b0316611892565b82546001600160801b0391821661010093840a908102920219161790915542600284015560038301805461ff00191690911790555060005b600154811015610dad576000818152600960205260409020546001600160a01b0316610c8257600090815260096020526040902080546001600160a01b0319163317905550610db0565b6000818152600960205260409020546001600160a01b0316331415610ca8575050610db0565b6000818152600960209081526040808320546001600160a01b03168352600a9091529020600190810154908301546001600160801b0391821691161115610d9b5781546001600160a01b0316815b600154811015610d5157600081815260096020526040902080546001600160a01b039384166001600160a01b031982161790915591909116908133811415610d3e5750610d51565b5080610d49816118e9565b915050610cf6565b50336001600160a01b03167f1e9f9cb635501344a73c807b28575553c3d5c4b6b4753e6ea64d77aa75c0097983604051610d8b9190611861565b60405180910390a2505050610db0565b80610da5816118e9565b915050610c38565b50505b50565b6000546001600160a01b031690565b60015481565b610dd0610fea565b6001600160a01b0316610de1610db3565b6001600160a01b031614610e075760405162461bcd60e51b815260040161069a906116f7565b600455565b610e14610fea565b6001600160a01b0316610e25610db3565b6001600160a01b031614610e4b5760405162461bcd60e51b815260040161069a906116f7565b6001600160a01b038116610e715760405162461bcd60e51b815260040161069a9061169f565b600880546001600160a01b0319166001600160a01b0392909216919091179055565b6001600160a01b03166000908152600a6020526040902060018101546002909101546001600160801b0390911691565b610ecb610fea565b6001600160a01b0316610edc610db3565b6001600160a01b031614610f025760405162461bcd60e51b815260040161069a906116f7565b6001600160a01b038116610f285760405162461bcd60e51b815260040161069a906115e9565b610db081611076565b610f39610fea565b6001600160a01b0316610f4a610db3565b6001600160a01b031614610f705760405162461bcd60e51b815260040161069a906116f7565b6001600160a01b038216610f965760405162461bcd60e51b815260040161069a9061169f565b6107ab818361105f565b610fa8610fea565b6001600160a01b0316610fb9610db3565b6001600160a01b031614610fdf5760405162461bcd60e51b815260040161069a906116f7565b600255565b60025481565b3390565b610ff6610abc565b6110125760405162461bcd60e51b815260040161069a906115bb565b6000805460ff60a01b191690557f5db9ee0a495bf2e6ff9c91a7834c1ba4fdd244a5e8aa4e537bd38aeae4b073aa611048610fea565b6040516110559190611476565b60405180910390a1565b6007546107ab906001600160a01b0316828461113f565b600080546001600160a01b038381166001600160a01b0319831681178455604051919092169283917f8be0079c531659141344cd1fd0a4f28419497f9722a3daafe3b4186f6b6457e09190a35050565b6110ce610abc565b156110eb5760405162461bcd60e51b815260040161069a90611675565b6000805460ff60a01b1916600160a01b1790557f62e78cea01bee320cd4e420270b5ea74000d11b0c9f74754ebdbfc544b05a258611048610fea565b600754610db0906001600160a01b0316333084611195565b610dad8363a9059cbb60e01b848460405160240161115e9291906114ae565b60408051601f198184030181529190526020810180516001600160e01b03166001600160e01b0319909316929092179091526111bc565b6111b6846323b872dd60e01b85858560405160240161115e9392919061148a565b50505050565b6000611211826040518060400160405280602081526020017f5361666545524332303a206c6f772d6c6576656c2063616c6c206661696c6564815250856001600160a01b031661124b9092919063ffffffff16565b805190915015610dad578080602001905181019061122f91906113c1565b610dad5760405162461bcd60e51b815260040161069a90611763565b606061125a8484600085611264565b90505b9392505050565b6060824710156112865760405162461bcd60e51b815260040161069a9061162f565b61128f85611324565b6112ab5760405162461bcd60e51b815260040161069a9061172c565b600080866001600160a01b031685876040516112c7919061145a565b60006040518083038185875af1925050503d8060008114611304576040519150601f19603f3d011682016040523d82523d6000602084013e611309565b606091505b509150915061131982828661132e565b979650505050505050565b803b15155b919050565b6060831561133d57508161125d565b82511561134d5782518084602001fd5b8160405162461bcd60e51b815260040161069a9190611588565b80356001600160a01b038116811461132957600080fd5b60006020828403121561138f578081fd5b61125d82611367565b600080604083850312156113aa578081fd5b6113b383611367565b946020939093013593505050565b6000602082840312156113d2578081fd5b8151801515811461125d578182fd5b6000602082840312156113f2578081fd5b81356001600160801b038116811461125d578182fd5b600060208284031215611419578081fd5b5035919050565b6000815180845260208085019450808401835b8381101561144f57815187529582019590820190600101611433565b509495945050505050565b6000825161146c8184602087016118bd565b9190910192915050565b6001600160a01b0391909116815260200190565b6001600160a01b039384168152919092166020820152604081019190915260600190565b6001600160a01b03929092168252602082015260400190565b606080825284519082018190526000906020906080840190828801845b828110156115095781516001600160a01b0316845292840192908401906001016114e4565b50505083810382850152855180825286830191830190845b818110156115465783516001600160801b031683529284019291840191600101611521565b5050848103604086015261155a8187611420565b98975050505050505050565b901515815260200190565b9182526001600160a01b0316602082015260400190565b60006020825282518060208401526115a78160408501602087016118bd565b601f01601f19169190910160400192915050565b60208082526014908201527314185d5cd8589b194e881b9bdd081c185d5cd95960621b604082015260600190565b60208082526026908201527f4f776e61626c653a206e6577206f776e657220697320746865207a65726f206160408201526564647265737360d01b606082015260800190565b60208082526026908201527f416464726573733a20696e73756666696369656e742062616c616e636520666f6040820152651c8818d85b1b60d21b606082015260800190565b60208082526010908201526f14185d5cd8589b194e881c185d5cd95960821b604082015260600190565b60208082526016908201527543616e6e6f74206265207a65726f206164647265737360501b604082015260600190565b6020808252600e908201526d155cd95c881b9bdd08199bdd5b9960921b604082015260600190565b6020808252818101527f4f776e61626c653a2063616c6c6572206973206e6f7420746865206f776e6572604082015260600190565b6020808252601d908201527f416464726573733a2063616c6c20746f206e6f6e2d636f6e7472616374000000604082015260600190565b6020808252602a908201527f5361666545524332303a204552433230206f7065726174696f6e20646964206e6040820152691bdd081cdd58d8d9595960b21b606082015260800190565b60208082526010908201526f155cd95c881b9bdd081b585d18da195960821b604082015260600190565b60208082526018908201527f557365722068617320616c726561647920636c61696d65640000000000000000604082015260600190565b6020808252600c908201526b115d995b9d0e8e915391115160a21b604082015260600190565b6001600160801b0391909116815260200190565b6001600160801b03929092168252602082015260400190565b90815260200190565b9283526001600160801b039190911660208301526001600160a01b0316604082015260600190565b60006001600160801b038083168185168083038211156118b4576118b4611904565b01949350505050565b60005b838110156118d85781810151838201526020016118c0565b838111156111b65750506000910152565b60006000198214156118fd576118fd611904565b5060010190565b634e487b7160e01b600052601160045260246000fdfea264697066735822122066d2779b039bc9d73cd4361fc7d4089892fad5881b7947bf6b996d15fef5fd8f64736f6c63430008000033",
  "linkReferences": {},
  "deployedLinkReferences": {}
}